:020000002328B3
:100008007E14803120007F08FD00911C1E2891106D
:100018000130D802031D18282030FC007C08D800C5
:100028000130FC007C08BE072D21710825009200D4
:10003800700891007D082000FF007E100900242828
:1000480049308400823085003F30860000308700C8
:100058001A308C226330840082308500A0308600FC
:10006800003087000E308C2220308400003085005C
:100078001F3092227E102000712A200059085A044D
:1000880003194928200038144B2820003810381C40
:10009800C9280030DF000230E0005A08DC005908A7
:1000A800DB000430DC36DB0C890B56285F085B0765
:1000B800E10060085C3DE200103062020030031984
:1000C8006102031C6B28FF30E1000F30E200620878
:1000D800DC006108DB00DC36DB0CDC36DB0CDC36F4
:1000E800DB0C5B08AC005C08AD006208DC00610852
:1000F800DB000430DC36DB0C890B7E285B08DD0076
:100108005D08B7006208DC006108DB000430DC36FB
:10011800DB0C890B8B285B08DD005D08B6000A3014
:100128005A02003003195902031CC0285A08DC007F
:100138005908DB000630DC36DB0C890B9F285B088E
:10014800D1005C08D2005A08DC005908DB000430F2
:10015800DC36DB0C890BAC285A08DE005908DD00B8
:100168000630DE36DD0C890BB5285B085D07CF004D
:100178005C085E3DD00008009930D1000130D20003
:100188003330CF000330D00008006030AC000030BE
:10019800AD0008000430F6212000E9006908BD0020
:1001A8005708E900EA016908B2076A08B33D09304F
:1001B8003302C43003193202031C2029C430B202AE
:1001C8000930B33B20299E220800A2222000E90022
:1001D8006908ED00A5308400823085000008E90038
:1001E8003C086907EA00EB01EB0D6B08803AEC006C
:1001F80080306C02031D02296D086A020318112958
:10020800A5308400823085000008FF3A013E2000B6
:100218006D07E9006908BC00BD2120003C086D029B
:1002280003181B296D08E9006908BC00BD2181215C
:1002380008002000BA0108003A08BA0A003A03196F
:10024800E728013A0319E928123A03191D292C292C
:10025800080020002D08FB002C08FA00381C7C2917
:100268005108AA075208AB3D4F08A8075008A93DF6
:100278003708F200F3012B08F5002A08F400750886
:10028800F400F50173087502031D4C297208740205
:10029800031C5129F601F70158295608F200F30109
:1002A8007208F6007308F7007608FA077708FB3D2E
:1002B8003608F200F3012908F5002808F40075084B
:1002C800F400F50173087502031D6C2972087402A5
:1002D800031C7129F801F90178295508F200F30186
:1002E8007208F8007308F9007808FA077908FB3DE6
:1002F8007B08F1007A08F000080020005408E800A4
:100308005308E70039080319A8292E09E3002F0923
:10031800E400E30A0319E40A6308FF3EE500FF303E
:10032800643DE60066085402031D9C2965085302D3
:100338000318A3292E08D3072F08D43DB729FF3067
:10034800D300FF30D400B72954082F02031DAE296B
:1003580053082E020318B5292E08D3022F08D43BC0
:10036800B729D301D4015408DA005308D900412031
:10037800080020003C08DD000430DD36890BC12967
:100388005D08DE005E08DF005F083B060319080011
:100398005F08DD005D08BB0009305F02031CE1292E
:1003A8005F35EE3EA03E86008701403FD900413FC1
:1003B800DA00DB01DB0A7B220800023020005F0242
:1003C800031C080008305F02031808005F35FC3E74
:1003D8003F3E86008701403FD900413FDA00DB01FC
:1003E8007B2208002000DA000130DA020319212AF2
:1003F8000130CB35CC0DCD0DCE0D890BFD294D1E11
:10040800072A0130082A0030D9005908DB004D1F9F
:100418000F2A0130102A0030D9005908DC005B0887
:10042800031D192A5C08031D1F2A5B080319F829F4
:100438005C08031DF8294B14F8294B080800320002
:100448001F08F03906389F00043023008C0007305D
:1004580021008C0022008C010C303D00950060309A
:1004680021009E00F93020009E009D0104309F006D
:10047800013025009200003091008F309300023047
:1004880021009100C0308B0008002D340034333433
:100498000034193400340F34003405340034013486
:1004A8000034013400340034003480340134003422
:1004B800053400340134FF34FF346C340134023421
:1004C8000034053400340A3400340F34003419344D
:1004D8000034333400342534003498222322200099
:1004E8003E080319732A0130BE028522732A2000B0
:1004F8005A08AF005908AE005B08DC005C08B90078
:10050800080021302000B4070030B53DCE20080097
:10051800FE0012001E00FE0B8D2A003464008001CC
:100528000131890B932A003400302000D900DA0009
:10053800412008000B3021009D00080021001C0804
:040548000800023471
:020000040001F9
:08000E008CDFF0F7FFDFFFFFBC
:00000001FF
