:0200000038289E
:100008007E14803120007F08FD00911C3328911058
:100018000130DE02031D18284030FB007B08DE009B
:100028000130FB007B08A507C201C3012D306C21FC
:10003800FB00FC017B082000C2077C08C33D26307A
:100048006C21FB00FC017B082000C2077C08C33D33
:1000580043082500920020004208250091007D08F1
:100068002000FF007E10090039287C30840083308E
:10007800850051308600003087000E308A23943086
:10008800840082308500A0308600003087002A3046
:100098008A23B43084008130850020308600013006
:1000A800870040308A2320308400003085002230C9
:1000B80090237E1020006C2B863400348E3400345C
:1000C800963400349F340034A9340034B3340034F7
:1000D800BD340034C9340034D5340034E13400343C
:1000E800EF340034FD3400340C3401341C34013452
:1000F8002D3401343F340134523401346634013430
:100108007B34013491340134A9340134C3340134CB
:10011800DD340134FA34013418340234383402340A
:10012800593402347D340234A3340234CB340234DB
:10013800F63402342334033453340334853403341B
:10014800BB340334F3340334303404346F340434AC
:10015800B3340434FA34043446340534963405345C
:10016800EB34053446340634A53406340A340734EF
:1001780075340734E73407345F340834DF3408341F
:1001880066340934F53409348C340A342D340B348C
:10019800D7340B348B340C344A340D3414340E34C5
:1001A800EB340E34CE340F34BE341034BD34113435
:1001B800CB341234EA341334193415345A3416341F
:1001C800AE3417341634193494341A3429341C34A0
:1001D800D6341D349C341F34283400342000C90020
:1001E8004908053E86008701013081020319FE286F
:1001F800003008004908023E86008701403FC500DC
:10020800413FC60045088600460887000108C70028
:100218004708C8004908023E860087010130810767
:1002280041310318810A21304802031C3C2948083F
:10023800C5000530C536890B1E294508513E860084
:1002480087010108C6004908053E8600870146085F
:1002580081004908043E8600870148081F390107C4
:10026800C500440886008701450881000130080060
:100278004808031D4B294908860087014908023EA2
:1002880084008501403F803F413F813FFE2848036D
:10029800031DFE284908023E86008701403FC5002D
:1002A800413FC60045088600460887000108C70088
:1002B8004908043E86008701470881004908023E34
:1002C800860087010130810741310318810AFE2821
:1002D800FA007A08033E86008701403FF000413F5C
:1002E800F1007108F2007208F8007A08023E8600F0
:1002F80087010108F000F1017A08053E86008701B0
:10030800403FF200413FF3007308F200F301710827
:100318007302031D912970087202031C9B29780837
:10032800F000F1017008F6007108F7009D29F60148
:10033800F7017608F0007008F9007A08860087014E
:10034800403FF400413FF5007A08053E86008701EA
:100358007408810741317508813D7F3179080800AB
:1003680001341D34C934D034D034CE34CE34D034F2
:10037800CC34CB34AB34AC34CE34CC34CB34E93499
:10038800E934C934D034D034CE34CE34D034CC343B
:10039800CB34AB34AC34CE34CC34CB34E934E9345C
:1003A800C934D534D534D334D334D534D134D03416
:1003B800B034B134D334D034CE34EE34ED34CE341A
:1003C800D134B134B034CE34CC34D034D034CC344D
:1003D800AB34AC34CE34CC34CB34E934E9340034E7
:1003E80020005D08CC00CD014C08A0074D08A13DB8
:1003F80009302102C43003192002031C282AC43002
:10040800A0020930A13B4030CC004C08C4003A306F
:10041800F220003A0319172A20004008CC004C08A3
:10042800C4002D30BE2241302000CC004C08C4004E
:100438003430F220003A0319282A20004108CC0061
:100448004C08C4002630BE22043069222000590816
:10045800CC004C08A4002D30342226303422080069
:100468002000C8004808033E86008701403FC400BA
:10047800413FC500F030840080308500003FC60051
:10048800013FC70045084702031D4C2A440846029D
:100498000318612AF030840080308500003FC400D2
:1004A800013FC5004808033E8600870144088102D1
:1004B80041314508813B7F3108004808033E8600EA
:1004C80087010030C03FC13F08002000C50001304F
:1004D800C502031908000130D935DA0DDB0DDC0D32
:1004E800890B702A5B1E7A2A01307B2A0030C400EF
:1004F8004408C6005B1F822A0130832A0030C400EA
:100508004408C7004608031D8C2A4708031D922A81
:10051800460803196B2A4708031D6B2A59146B2ACE
:1005280001340534F534F134F334F034F134EE3475
:10053800CC34CB34C934D034F534F134F334F0341A
:10054800F134EE34CC34CB34C934D034FA34F73403
:10055800F834F534F634F334D534CD34D534D934CD
:10056800FA34F434F534F134EE34F034F134CE3472
:10057800D13400342000CB004408C500C601C5357D
:10058800C60D4508E83EC700FF30463DC80060304C
:10059800C9008030CA0047084907860048084A3D14
:1005A80087004B0884008501403F803F413F813FE1
:1005B8004B08033E860087010030C03FFF30C13F33
:1005C800080032001F08F03906389F0023008C010C
:1005D800033021008C00103022008C000C303D00CC
:1005E8009200F93020009E009D0104309F002500F4
:1005F800910192018F309300023021009100C030A8
:100608008B0008002000C7004708860087014408BF
:10061800C03F4508C13F4708023E8600870144089D
:10062800C03F4508C13F2030C6004708043E860049
:100638008701460881004708053E86008701810139
:10064800810A08002000C50045088600870100309F
:10065800C03FC13F6A30C4004508023E860087019A
:10066800440881004508033E860087010030C03FEA
:10067800C13F4508053E860087010030C03FC13FA5
:1006880008002000C9004908C4000130C5003A30FC
:10069800062320004808C4000030C5003430062373
:1006A8002D30262326302623080083302000A20779
:1006B8000030A33D2308CF002208CE000A30CF36F1
:1006C800CE0C890B632B4E0822008C00F421080005
:1006D800A0302000D0005008C80020304523E52273
:1006E800200025080319742B0130A5025923742B07
:1006F8000134013401340134033406340C34183421
:1007080001340034003400346C340134FE0012002B
:100718001E00FE0B8B2B0034640080010131890B15
:04072800912B0034DD
:020000040001F9
:08000E008CDFF0F7FFDFFFFFBC
:00000001FF
