:020000002328B3
:100008007E14803120007F08F700911C1E28911073
:100018000130FA02031D18284030F6007608FA006D
:100028000130F6007608B207BB207108250092005F
:100038007008910077082000FF007E10090024282E
:100048004130840081308500783086000030870098
:10005800033031212A308400813085003E3086000B
:100068000030870007303121FB01FC01203084007B
:1000780000308500133037217E1020002029200011
:100088004408B700B8013708AC073808AD3D093057
:100098002D02C43003192C02031C5628C430AC02AC
:1000A8000930AD3B44212000B7003708BB0047307A
:1000B8008400813085000008B70030083707B80091
:1000C800B901B90D3908803ABA0080303A02031DE7
:1000D8006F283B08380203187D2847308400813098
:1000E80085000008FF3A013E20003B07B7003708AB
:1000F800B000200030083B02031886283B08B700F0
:100108003708B00004308E202000B7003708B1004F
:100118003D2108002000B4000130B4020319B928B9
:100128000130BE35BF0DC00DC10D890B9528401E8D
:100138009F280130A0280030B3003308B500401FC5
:10014800A7280130A8280030B3003308B6003508C6
:10015800031DB1283608031DB72835080319902850
:100168003608031D90283E1490283E080800F50123
:10017800083075020318D0289930F2007508203E1F
:1001880086008701720881000130F2007208F507C5
:1001980008307502031CC028F301F401F001F101D5
:1001A80020007808AA077908AB3D2B08F007420819
:1001B800A8074308A93D2908F0070030F13D0800C9
:1001C800F001F101080032001F08F03906389F00DD
:1001D800043023008C00073021008C0022008C01A1
:1001E8000C303D009400603021009E00F930200062
:1001F8009E009D0104309F000130250092000030D0
:1002080091008F309300023021009100C0308B00A4
:10021800080083302000AE070030AF3D2F08BD0036
:100228002E08BC000A30BD36BC0C890B17293C08C7
:1002380022008C00432008004821E72020003208D3
:10024800031922290130B2020D2122290134003478
:1002580000340034393404346C34FE0012001E00BB
:10026800FE0B32290034640080010131890B3829E2
:1002780000340B3021009D000800CA3400340134DA
:0A02880021001C08080002340800E1
:020000040001F9
:08000E008CDFF0F7FFDFFFFFBC
:00000001FF
