:0200000039289D
:100008007E14803120007F08FD00911C1E2891106D
:100018000130D902031D18282030FC007C08D900C3
:100028000130FC007C08BF07E4207108250092001D
:10003800700891002000911E342891123908031D80
:100048002728013028280030FC007C08B90030300F
:10005800F0000030F1003908FC007C08F20048226A
:100068007D082000FF007E1009003A28FD3084003A
:100078008130850040308600003087001A305922D0
:100088002630840082308500A0308600003087004A
:100098000E305922203084000030850020305F2245
:1000A8007E102000342A20005A085B0403195F28B8
:1000B80020003814612820003810381CDF28003050
:1000C800E0000230E1005B08DD005A08DC00043083
:1000D800DD36DC0C890B6C2860085C07E2006108DF
:1000E8005D3DE30010306302003003196202031C17
:1000F8008128FF30E2000F30E3006308DD0062086A
:10010800DC00DD36DC0CDD36DC0CDD36DC0C5C08B6
:10011800AC005D08AD006308DD006208DC00043057
:10012800DD36DC0C890B94285C08DE005E08B7001D
:100138006308DD006208DC000430DD36DC0C890B66
:10014800A1285C08DE005E08B6000A305B020030B9
:1001580003195A02031CD6285B08DD005A08DC0084
:100168000630DD36DC0C890BB5285C08D2005D084A
:10017800D3005B08DD005A08DC000430DD36DC0CF7
:10018800890BC2285B08DF005A08DE000630DF361C
:10019800DE0C890BCB285C085E07D0005D085F3D4C
:1001A800D10008009930D2000130D3003330D0009C
:1001B8000330D10008006030AC000030AD0008000A
:1001C80020002D08FB002C08FA00381C332952089F
:1001D800AA075308AB3D5008A8075108A93D37089E
:1001E800F200F3012B08F5002A08F4007508F40062
:1001F800F50173087502031D032972087402031CB4
:100208000829F601F7010F295708F200F3017208CF
:10021800F6007308F7007608FA077708FB3D3608FA
:10022800F200F3012908F5002808F4007508F40025
:10023800F50173087502031D232972087402031C53
:100248002829F801F9012F295608F200F30172084C
:10025800F8007308F9007808FA077908FB3D7B086D
:10026800F1007A08F000080020005508E900540859
:10027800E8003A0803195F292E09E4002F09E50070
:10028800E40A0319E50A6408FF3EE600FF30653D0D
:10029800E70067085502031D53296608540203182E
:1002A8005A292E08D4072F08D53D6E29FF30D400CF
:1002B800FF30D5006E2955082F02031D6529540803
:1002C8002E0203186C292E08D4022F08D53B6E295C
:1002D800D401D5015508DB005408DA00572008007E
:1002E80032001F08F03906389F0023008C010730C0
:1002F80021008C0022008C0112303C00A4000C303C
:100308003D009500603021009E00F93020009E00DD
:100318009D0104309F0001302500920000309100BB
:100328008F309300043023009B0004309E009030EF
:100338009D00023021009100C0308B00080004307D
:10034800D0212000EA006A08BE005808EA00EB0144
:100358006A08B2076B08B33D09303302C430031989
:100368003202031CC329C430B2020930B33BC3298B
:1003780065220800382108002000BB0108003B085E
:10038800BB0A003A0319BC29013A0319BE29123ADB
:100398000319C029CF2908002000DB000130DB0247
:1003A8000319FB290130CC35CD0DCE0DCF0D890BAE
:1003B800D7294E1EE1290130E2290030DA005A0817
:1003C800DC004E1FE9290130EA290030DA005A081A
:1003D800DD005C08031DF3295D08031DF9295C088D
:1003E8000319D2295D08031DD2294C14D2294C08BF
:1003F80008002D34003433340034193400340F34F9
:10040800003405340034013400340134003400343D
:100418000034803401340034053400340134FF34AE
:10042800FF346C34013400302000DA006430DB0023
:10043800572010302000DA000030DB00DC01DC0A35
:100448003E22080002340034053400340A340034F3
:100458000F34003419340034333400342534003474
:100468001722742120003F080319362A0130BF02E1
:100478005222362A20005B08AF005A08AE005C08FA
:10048800DD005D08BA00080071082000AF007008A0
:10049800AE007208F3007308BA000800213020008B
:1004A800B4070030B53DA3210800FE0012001E006D
:1004B800FE0B5A2A0034640080010131890B602A3E
:0C04C80000340B3021009D0008000234BD
:020000040001F9
:08000E008CDFF0F7FFDFFFFFBC
:00000001FF
