:020000002328B3
:100008007E14803120007F08F500911C1E28911075
:100018000130FB02031D18284030F4007408FB006F
:100028000130F4007408D907B52171082500920041
:100038007008910075082000FF007E100900242830
:1000480009308400823085007930860000308700CE
:100058000330F321923084008130850020308600FF
:10006800003087002330F321F601F701F80143300F
:100078008400003085001730F9217E102000DF2928
:10008800043018212000E6006608D8004208E6007F
:10009800E7016608D1076708D23D09305202C4302B
:1000A80003195102031C9628C430D1020930D23BEF
:1000B8009628052208000C222000E6006608EA00BF
:1000C8000F308400823085000008E6005708660774
:1000D800E700E801E80D6808803AE9008030690225
:1000E800031D78286A086702031887280F308400E0
:1000F800823085000008FF3A013E20006A07E600CA
:100108006608D700DF20200057086A0203189128E4
:100118006A08E6006608D700DF20A3200800200050
:10012800D60108005608D60A003A03195D28013A94
:1001380003195F28083A03199328A2280800200009
:100148004108E5004008E40055080319CA284F098A
:10015800E0005009E100E00A0319E10A6008FF3EE7
:10016800E200FF30613DE30063084102031DBE2841
:10017800620840020318C5284F08C0075008C13D4F
:10018800D928FF30C000FF30C100D92841085002EB
:10019800031DD02840084F020318D7284F08C00273
:1001A8005008C13BD928C001C1014108DB00400803
:1001B800DA004521080020005708DE000430DE364A
:1001C800890BE3285E08DF005F08E0006008780616
:1001D800031908006008DE005E08F80009306002B4
:1001E800031C03296035EE3E203E86008701403F10
:1001F800DA00413FDB00DC01DC0AE92108000230BB
:1002080020006002031C0800083060020318080080
:100218006035FC3E2E3E86008701403FDA00413FB4
:10022800DB00DC01E92108002000DB000130DB02F3
:10023800031943290130BA35BB0DBC0DBD0D890B1F
:100248001F293C1E292901302A290030DA005A08C2
:10025800DC003C1F3129013032290030DA005A080D
:10026800DD005C08031D3B295D08031D41295C086E
:1002780003191A295D08031D1A293A141A293A087C
:10028800080020005B08DD005A08DC000630DD3677
:10029800DC0C890B4B295C08F9005D08FA005B0847
:1002A800DD005A08DC000430DD36DC0C890B5829E7
:1002B8005B08DF005A08DE000630DF36DE0C890BEB
:1002C80061295C085E07BE005D085F3DBF0008004D
:1002D80032001F08F03906389F00043023008C00D4
:1002E800073021008C0022008C010C303D00940066
:1002F800603021009E00F93020009E009D010430EE
:100308009F00013025009200003091008F3093004B
:10031800023021009100C0308B0008000234003404
:10032800053400340A3400340F34003419340034EE
:1003380033340034253400342D340034333400345D
:10034800193400340F3400340534003401340034D7
:1003580001340034003400343934043400340134B6
:100368006C34F201F301F001F10120007908CD07A6
:100378007A08CE3D4E08F0073E08CB073F08CC3D33
:100388004C08F0070030F13D0800F001F1010800C9
:1003980083302000D3070030D43D5408EC005308C4
:1003A800EB000A30EC36EB0C890BD6296B082200DF
:1003B8008C0044200800FF216C21200059080319F3
:1003C800E1290130D902CC21E12920005B08D000C5
:1003D8005A08CF005C08DD005D08D5000800FE0063
:1003E80012001E00FE0BF429003464008001013164
:1003F800890BFA29003400302000DA00DB0045219F
:1004080008000B3021009D000800CA340034013474
:0804180021001C080800023459
:020000040001F9
:08000E008CDFF0F7FFDFFFFFBC
:00000001FF
