:040000000128EE2FB6
:100F5600B8340134803480347408F2077508F33DE0
:100F66007308F8007808FC000800F8007808023ECC
:100F760086008701780884008501403F800701319B
:100F8600413F803D3F3108000130F8020030F93B17
:100F960078087904031908006430FA007A08FB001F
:100FA6000130FB020319C72FD32F32001F08F03977
:100FB60007389F0023008C01033021008C0020306D
:100FC60022008C002030B827AF27E830F800033025
:100FD600F900C727E82FAB27F400AC27F500AD27AB
:100FE600F600AE27F700F001F101F201F301A001CE
:0A0FF600A101A201A3012000D82FE1
:020000040001F9
:08000E008CDFF0F7FFDFFFFFBC
:00000001FF
