:0200000038289E
:100008007E14803120007F08FD00911C3328911058
:100018000130DA02031D18284030FB007B08DA00A3
:100028000130FB007B08A507BE01BF012D309B21D5
:10003800FB00FC017B082000BE077C08BF3D263082
:100048009B21FB00FC017B082000BE077C08BF3D0C
:100058003F082500920020003E08250091007D08F9
:100068002000FF007E10090039283D3084008330CD
:1000780085004D308600003087000E304B2351300C
:10008800840081308500A0308600003087004A3027
:100098004B2320308400003085001E3051237E1011
:1000A80020002D2B863400348E34003496340034EE
:1000B8009F340034A9340034B3340034BD340034E0
:1000C800C9340034D5340034E1340034EF3400341A
:1000D800FD3400340C3401341C3401342D34013423
:1000E8003F34013452340134663401347B340134F2
:1000F80091340134A9340134C3340134DD3401347A
:10010800FA3401341834023438340234593402349D
:100118007D340234A3340234CB340234F63402344E
:10012800233403345334033485340334BB34033465
:10013800F3340334303404346F340434B3340434C3
:10014800FA3404344634053496340534EB34053433
:1001580046340634A53406340A3407347534073473
:10016800E73407345F340834DF340834663409343C
:10017800F53409348C340A342D340B34D7340B3429
:100188008B340C344A340D3414340E34EB340E34BE
:10019800CE340F34BE341034BD341134CB34123461
:1001A800EA341334193415345A341634AE34173447
:1001B8001634193494341A3429341C34D6341D3482
:1001C8009C341F34683400342000C4004408033EC3
:1001D80086008701013081020319F42800300800E5
:1001E800440A860087010108860087010108C100CA
:1001F8004108C3000130C100440A86008701410854
:10020800810721304302031C2A294308C100053015
:10021800C136890B0C2941084D3E8600870101082B
:10022800C2004408033E8600870142088100440852
:10023800023E8600870143081F390107C1004008B4
:100248008600870141088100013008004308031D2A
:1002580038294408860087010108C100440A86003D
:10026800870141088100F4284303031DF428440A48
:10027800860087010108860087010108C10044083B
:10028800023E86008701410881000130C100440A0E
:100298008600870141088107F42801341B34A434FF
:1002A800A934AC34AE34D034B034B334AE34B03412
:1002B800AB34A734E934C934AC34A934CE34B034BF
:1002C800AB34CC34AC34A934CE34B334AE34D034BB
:1002D800B034B334D534B534B834B73493349034F7
:1002E800AE34AC34F034D034CE34F034D034C934F5
:1002F800A834A934AB34B034003401340F34E434B6
:10030800E534E434C934CB34CC34C934C234C434CD
:10031800C934C934C234C734CC34CC34E534E434B9
:10032800E634E234E434E434C434D0340034FA003B
:100338007A08033E86008701403FF000413FF10004
:100348007108F2007208F8007A08023E86008701F8
:100358000108F000F1017A08053E86008701403F58
:10036800F200413FF3007308F200F30171087302D1
:10037800031DC02970087202031CCA297808F000FE
:10038800F1017008F6007108F700CC29F601F701B1
:100398007608F0007008F9007A0886008701403F67
:1003A800F400413FF5007A08053E8600870174088D
:1003B800810741317508813D7F31790808002000A7
:1003C8005908C800C9014808A0074908A13D0930D3
:1003D8002102C43003192002031C172AC430A002CA
:1003E8000930A13B3C30C8004808C0003830E8203C
:1003F800003A0319062A20003C08C8004808C00033
:100408002D3083223D302000C8004808C000343019
:10041800E820003A0319172A20003D08C8004808B8
:10042800C000263083220430582220005508C80016
:100438004808A4002D30232226302322080020005B
:10044800C4004408033E86008701403FC000413F86
:10045800C100E630840080308500003FC200013FC3
:10046800C30041084302031D3B2A40084202031807
:10047800502AE630840080308500003FC000013FEC
:10048800C1004408033E86008701400881024131CB
:100498004108813B7F3108004408033E86008701FC
:1004A8000030C03FC13F08002000C1000130C10238
:1004B800031908000130D535D60DD70DD80D890B95
:1004C8005F2A571E692A01306A2A0030C000400896
:1004D800C200571F712A0130722A0030C00040083C
:1004E800C3004208031D7B2A4308031D812A4208D2
:1004F80003195A2A4308031D5A2A55145A2A200058
:10050800C7004008C100C201C135C20D4108E83E1C
:10051800C300FF30423DC4005630C5008030C600DD
:100528004308450786004408463D8700470884007D
:100538008501403F803F413F813F4708033E860099
:1005480087010030C03FFF30C13F080032001F085C
:10055800F03906389F0023008C01033021008C00FD
:10056800103022008C000C303D009200F930200041
:100578009E009D0104309F002500910192018F305B
:100588009300023021009100C0308B000800200049
:10059800C1004108860087010030C03FC13F72306A
:1005A800C0004108023E86008701400881004108DA
:1005B800033E860087010030C03FC13F4108053E29
:1005C800860087010030C03FC13F08002000C200FC
:1005D8004208860087014008C03FC100420A8600E1
:1005E8008701410881002030C1004208023E860090
:1005F8008701410881004208033E86008701810186
:10060800810A08002000C5004508C4004408C0004D
:100618003830EA2220004308C4004408C0003430BF
:10062800EA222D30CB222630CB220800833020004E
:10063800A2070030A33D2308CB002208CA000A30D5
:10064800CB36CA0C890B242B4A0822008C00E321E4
:100658000800D0302000CC004C08C300A03006238E
:10066800AA22200025080319352B0130A5021A23D8
:10067800352B0134013401340134033406340C348D
:100688001834013400340034003460340134FE007E
:1006980012001E00FE0B4C2B003464008001013157
:0606A800890B522B003407
:020000040001F9
:08000E008CDFF0F7FFDFFFFFBC
:00000001FF
