:0200000038289E
:100008007E14803120007F08FD00911C3328911058
:100018000130CB02031D18284030FB007B08CB00C1
:100028000130FB007B08A507CE01CF012D305121FF
:10003800FB00FC017B082000CE077C08CF3D263062
:100048005121FB00FC017B082000CE077C08CF3D36
:100058004F082500920020004E08250091007D08D9
:100068002000FF007E1009003928233084008330E7
:1000780085003E30860000308700103043239930D9
:10008800840081308500A030860000308700403031
:10009800432320308400003085001E3049237E1021
:1000A8002000332B863400348E34003496340034E8
:1000B8009F340034A9340034B3340034BD340034E0
:1000C800C9340034D5340034E1340034EF3400341A
:1000D800FD3400340C3401341C3401342D34013423
:1000E8003F34013452340134663401347B340134F2
:1000F80091340134A9340134C3340134DD3401347A
:10010800FA3401341834023438340234593402349D
:100118007D340234A3340234CB340234F63402344E
:10012800233403345334033485340334BB34033465
:10013800F3340334303404346F340434B3340434C3
:10014800FA3404344634053496340534EB34053433
:1001580046340634A53406340A3407347534073473
:10016800E73407345F340834DF340834663409343C
:10017800F53409348C340A342D340B34D7340B3429
:100188008B340C344A340D3414340E34EB340E34BE
:10019800CE340F34BE341034BD341134CB34123461
:1001A800EA341334193415345A341634AE34173447
:1001B8001634193494341A3429341C34D6341D3482
:1001C8009C341F34783400342000D4005408033E93
:1001D80086008701013081020319F42800300800E5
:1001E800540A860087010108860087010108D100AA
:1001F8005108D3000130D100540A86008701510804
:10020800810721305302031C2A295308D1000530E5
:10021800D136890B0C2951083E3E8600870101081A
:10022800D2005408033E8600870152088100540812
:10023800023E8600870153081F390107D100500884
:100248008600870151088100013008005308031D0A
:1002580038295408860087010108D100540A86000D
:10026800870151088100F4285303031DF428540A18
:10027800860087010108860087010108D10054081B
:10028800023E86008701510881000130D100540ADE
:100298008600870151088107F428FA007A08033E8E
:1002A80086008701403FF000413FF1007108F200ED
:1002B8007208F8007A08023E860087010108F000FB
:1002C800F1017A08053E86008701403FF200413F70
:1002D800F3007308F200F30171087302031D762915
:1002E80070087202031C80297808F000F101700878
:1002F800F6007108F7008229F601F7017608F00088
:100308007008F9007A0886008701403FF400413FF1
:10031800F5007A08053E8600870174088107413197
:100328007508813D7F317908080001342634CC34C2
:10033800A734A934CB34C434C934A734A534C7345A
:10034800C034C234A234A434C534A534A734C93463
:10035800AB34AC34EE34D034AE34AC34CE34CB34ED
:10036800CC34AB34A934CB34C434C934A734A53421
:10037800C734A034A034CC34AB34A934E7340034C7
:1003880001341A34E034E434E534E034E234E2345D
:10039800C534C534E734E034E734E934E434E534CB
:1003A800E034C234C634E734003420004A08D800A8
:1003B800D9015808A0075908A13D09302102C430C5
:1003C80003192002031C0D2AC430A0020930A13BE6
:1003D8003C30D8005808D0003830E820003A0319DB
:1003E800FC2920003C08D8005808D0002D3079227C
:1003F8003D302000D8005808D0003430E820003ABA
:1004080003190D2A20003D08D8005808D0002630CE
:10041800792204304E2220004608D8005808A4004B
:100428002D3019222630192208002000D400540843
:10043800033E86008701403FD000413FD100E630AF
:10044800840080308500003FD200013FD30051086E
:100458005302031D312A500852020318462AE63077
:10046800840080308500003FD000013FD10054084F
:10047800033E860087015008810241315108813BC3
:100488007F3108005408033E860087010030C03FD2
:10049800C13F08002000D1000130D1020319080033
:1004A8000130C635C70DC80DC90D890B552A481E20
:1004B8005F2A0130602A0030D0005008D200481F5F
:1004C800672A0130682A0030D0005008D30052084B
:1004D800031D712A5308031D772A52080319502A4D
:1004E8005308031D502A4614502A2000D7005008EC
:1004F800D100D201D135D20D5108E83ED300FF30EA
:10050800523DD4005630D5008030D60053085507E8
:1005180086005408563D8700570884008501403FEF
:10052800803F413F813F5708033E860087010030E6
:10053800C03FFF30C13F080032001F08F0390638BD
:100548009F0023008C01033021008C0030302200F2
:100558008C000C303D009200F93020009E009D0177
:1005680004309F002500910192018F3093000230E2
:1005780021009100C0308B0008002000D1005108F4
:10058800860087010030C03FC13F7F30D00051084E
:10059800023E86008701500881005108033E86000C
:1005A80087010030C03FC13F5108053E86008701E2
:1005B8000030C03FC13F08002000D200520886002A
:1005C80087015008C03FD100520A860087015108B0
:1005D80081002030D1005208023E86008701510870
:1005E80081005208033E860087018101810A0800C4
:1005F8002000D5005508D4005408D0003830E02237
:1006080020005308D4005408D0003430E0222D30A4
:10061800C1222630C122080020302000A207003065
:10062800A33D2308DB002208DA000A30DB36DA0CA7
:10063800890B1A2B5A0822008C00D9210800013492
:10064800013401340134033406340C3418340134D1
:1006580000340034003460340134CB34A03420003A
:100668004C08DC005C08D3004D08FC22A0222000C6
:10067800250803193B2B0130A50210233B2BFE0054
:1006880012001E00FE0B442B00346400800101316F
:06069800890B4A2B00341F
:020000040001F9
:08000E008CDFF0F7FFDFFFFFBC
:00000001FF
