:020000001C28BA
:100008007E14803120007F08F100911C18280130EF
:10001800F702031D17284030F0007008F700013080
:10002800F0007008F60791107108FF007E100900B3
:100038001D285520F700F401F501F6017E10200077
:10004800252832001F08F03907389F0023008C014B
:10005800033021008C00203022008C00F930200071
:100068009E009D0104309F00023021009100C030A5
:100078008B00760803193D280130F60244203D28FC
:100088008330F4070030F53D7508F3007408F2007A
:100098000A30F336F20C890B4D28720822008C00C6
:0400A8000800013417
:020000040001F9
:08000E008CDFF0F7FFDFFFFFBC
:00000001FF
