:020000001C28BA
:100008007E14803120007F08F100911C18280130EF
:10001800F902031D17284030F0007008F90001307C
:10002800F0007008F80791107108FF007E100900B1
:100038001D286B20F900F601F701F8017E10200059
:10004800252832001F08F03907389F0023008C014B
:10005800033021008C00203022008C00F930200071
:100068009E009D0104309F00023021009100C030A5
:100078008B007808031942280130F802E830F200B2
:100088000330F30049205A203D280130F2020030A5
:10009800F33B72087304031908006430F400740811
:1000A800F5000130F5020319492855288330F60771
:1000B8000030F73D7708F3007608F2000A30F3368F
:1000C800F20C890B6328720822008C0008000134A6
:020000040001F9
:08000E008CDFF0F7FFDFFFFFBC
:00000001FF
