:020000001C28BA
:100008007E14803120007F08F100911C18280130EF
:10001800F702031D17284030F0007008F700013080
:10002800F0007008F60791107108FF007E100900B3
:100038001D285F20F700F401F501F6017E1020006D
:10004800252832001F08F03907389F0023008C014B
:10005800033021008C00203022008C000C303D0041
:100068009400F93020009E009D0104309F0000306C
:1000780025009200803091008F30930002302100DB
:100088009100C0308B007608031947280130F6022A
:100098004E2047288330F4070030F53D7508F300FB
:1000A8007408F2000A30F336F20C890B57287208EC
:0800B80022008C000800013455
:020000040001F9
:08000E008CDFF0F7FFDFFFFFBC
:00000001FF
