:020000003428A2
:100008007E14803120007F08FA00911C30280130CE
:10001800FD02031D17284030F8007808FD00013064
:10002800F8007808A207FB01FC012A30D620F80066
:10003800F9017808FB077908FC3D2330D620F80041
:10004800F9017808FB077908FC3D7C082500920037
:100058007B089100200091107A08FF007E100900AB
:1000680035281522FD001322C2001422C3002030B7
:1000780084000030850019300D227E1020004829A8
:10008800863400348E340034963400349F3400347F
:10009800A9340034B3340034BD340034C9340034D6
:1000A800D5340034E1340034EF340034FD34003406
:1000B8000C3401341C3401342D3401343F34013400
:1000C80052340134663401347B34013491340134C0
:1000D800A9340134C3340134DD340134FA34013431
:1000E8001834023438340234593402347D3402343A
:1000F800A3340234CB340234F634023423340334C8
:100108005334033485340334BB340334F3340334B5
:10011800303404346F340434B3340434FA340434DB
:100128004634053496340534EB3405344634063405
:10013800A53406340A34073475340734E7340734F1
:100148005F340834DF34083466340934F53409344C
:100158008C340A342D340B34D7340B348B340C34B0
:100168004A340D3414340E34EB340E34CE340F3498
:10017800BE341034BD341134CB341234EA34133461
:10018800193415345A341634AE3417341634193435
:1001980094341A3429341C34D6341D349C341F3416
:1001A80020340034F7007708043E860087010108F0
:1001B800F000F1017708053E86008701403FF20014
:1001C800413FF3007308F200F30171087302031D45
:1001D800EF2870087202031C00297708860087013F
:1001E800403FF000413FF1007108F000F101700854
:1001F800F4007108F5000229F401F5017408F00013
:100208007008F6007708023E860087017708053EE9
:1002180084008501403F80070131413F803D3F31E7
:10022800760808002000BD003D0886008701403F91
:10023800B900413FBA00D430840080308500003FC7
:10024800BB00013FBC003A083C02031D2D293908B8
:100258003B0203184129D430840080308500003FD8
:10026800B900013FBA003D088600870139088102BC
:1002780041313A08813B7F3108003D0886008701FB
:100288000030C03FC13F080032001F08F03907386E
:100298009F00982123008C01033021008C0020301E
:1002A80022008C000C303D009200F93020009E00A6
:1002B8009D0105309F002500910192018F30930028
:1002C800023021009100C0308B0020002208031961
:1002D80069290130A202F12169292000C0003908EA
:1002E800BA00BB01BA35BB0D3A08E83EBC00FF3086
:1002F8003B3DBD004430BE008030BF003C083E0797
:1003080086003D083F3D87004008023E8400850185
:10031800403F803F413F813F4008860087010030D1
:10032800C03FFF30C13F080043302000C1004108F2
:10033800B9003530D82142302000C1004108B90049
:100348003130D8212A30B9212330B9213730200063
:10035800C1004108B9002A30712140302000C10095
:100368004108B9002330712108002000BA003A087A
:10037800023E860087010030C03FC13F8030B9008F
:100388003A08043E86008701390881003A08860049
:1003980087010030C03FC13F3A08053E860087010B
:1003A8000030C03FC13F08002000BB003B0886006A
:1003B800870181013B0A860087013908C03FBA00DE
:1003C8003B08023E860087013A0881003B08033E4D
:1003D800860087018101810A080083302000A00778
:1003E8000030A13D2108BF002008BE000A30BF36FA
:1003F800BE0C890BFB293E0822008C000422080051
:1004080035301622313016222A3016212330162193
:100418000800640080010131890B0E2A0034FF3482
:06042800FF34013408005E
:020000040001F9
:08000E008CDFF0F7FFDFFFFFBC
:00000001FF
