:0200000038289E
:100008007E14803120007F08FD00911C3328911058
:100018000130CE02031D18284030FB007B08CE00BB
:100028000130FB007B08A407D001D1012D306C21E1
:10003800FB00FC017B082000D0077C08D13D26305E
:100048006C21FB00FC017B082000D0077C08D13D17
:1000580051082500920020005008250091007D08D5
:100068002000FF007E100900392873308400833097
:10007800850042308600003087000E30812394309E
:10008800840082308500A0308600003087002A3046
:100098008123B4308400813085002030860001300F
:1000A80087004030812320308400003085002230D2
:1000B80087237E102000BE2A863400348E34003414
:1000C800963400349F340034A9340034B3340034F7
:1000D800BD340034C9340034D5340034E13400343C
:1000E800EF340034FD3400340C3401341C34013452
:1000F8002D3401343F340134523401346634013430
:100108007B34013491340134A9340134C3340134CB
:10011800DD340134FA34013418340234383402340A
:10012800593402347D340234A3340234CB340234DB
:10013800F63402342334033453340334853403341B
:10014800BB340334F3340334303404346F340434AC
:10015800B3340434FA34043446340534963405345C
:10016800EB34053446340634A53406340A340734EF
:1001780075340734E73407345F340834DF3408341F
:1001880066340934F53409348C340A342D340B348C
:10019800D7340B348B340C344A340D3414340E34C5
:1001A800EB340E34CE340F34BE341034BD34113435
:1001B800CB341234EA341334193415345A3416341F
:1001C800AE3417341634193494341A3429341C34A0
:1001D800D6341D349C341F34083403342000D7002F
:1001E8005708053E86008701013081020319FE2861
:1001F800003008005708023E86008701403FD300C0
:10020800413FD40053088600540887000108D500F0
:100218005508D6005708023E86008701013081073D
:1002280041310318810A21305602031C3C29560823
:10023800D3000530D336890B1E295308423E860069
:1002480087010108D4005708053E86008701540835
:1002580081005708043E8600870156081F390107A8
:10026800D300520886008701530881000130080036
:100278005608031D4B295708860087015708023E78
:1002880084008501403F803F413F813FFE2856035F
:10029800031DFE285708023E86008701403FD30011
:1002A800413FD40053088600540887000108D50050
:1002B8005708043E86008701550881005708023E0A
:1002C800860087010130810741310318810AFE2821
:1002D800FA007A08033E86008701403FF000413F5C
:1002E800F1007108F2007208F8007A08023E8600F0
:1002F80087010108F000F1017A08053E86008701B0
:10030800403FF200413FF3007308F200F301710827
:100318007302031D912970087202031C9B29780837
:10032800F000F1017008F6007108F7009D29F60148
:10033800F7017608F0007008F9007A08860087014E
:10034800403FF400413FF5007A08053E86008701EA
:100358007408810741317508813D7F3179080800AB
:1003680001342234C934D034D034CE34CE34D034ED
:10037800CC34CB34AB34AC34CE34CC34CB34E93499
:10038800E934C934D034D034CE34CE34D034CC343B
:10039800CB34AB34AC34CE34CC34CB34E934E9345C
:1003A800C934D534D534D334D334D534D134D03416
:1003B800B034B134D334D034CE34EE34ED34CE341A
:1003C800D134B134B034CE34CC34D034D034CC344D
:1003D800AB34AC34CE34CC34CB34E934E9340034E7
:1003E80020004F08DA00DB015A08A2075B08A33D8A
:1003F80009302302C43003192202031C282AC430FE
:10040800A2020930A33B4030DA005A08D2003A3041
:10041800F220003A0319172A20004008DA005A0887
:10042800D2002D30E72241302000DA005A08D200ED
:100438003430F220003A0319282A20004108DA0053
:100448005A08D2002630E7220430692220004A08E0
:10045800DA005A08A5002D3034222630342208004C
:100468002000D6005608033E86008701403FD20090
:10047800413FD300F030840080308500003FD40035
:10048800013FD50053085502031D4C2A5208540257
:100498000318612AF030840080308500003FD200C4
:1004A800013FD3005608033E8600870152088102A7
:1004B80041315308813B7F3108005608033E8600CE
:1004C80087010030C03FC13F08002000D300013041
:1004D800D302031908000130CA35CB0DCC0DCD0D60
:1004E800890B702A4C1E7A2A01307B2A0030D200F0
:1004F8005208D4004C1F822A0130832A0030D200CF
:100508005208D5005408031D8C2A5508031D922A49
:10051800540803196B2A5508031D6B2A4A146B2AC1
:1005280001340A34F534F134F334F034F134EE3470
:10053800CC34CB34C934D034F534F134F334F0341A
:10054800F134EE34CC34CB34C934D034FA34F73403
:10055800F834F534F634F334D534CD34D534D934CD
:10056800FA34F434F534F134EE34F034F134CE3472
:10057800D134003432001F08F03906389F00602358
:1005880023008C01033021008C00203022008C00D5
:100598000C303D009200F93020009E009D0104308F
:1005A8009F002500910192018F30930002302100B5
:1005B8009100C0308B00200024080319DF2A013085
:1005C800A4024D23DF2A2000D9005208D300D40109
:1005D800D335D40D5308E83ED500FF30543DD6003E
:1005E8006030D7008030D800550857078600560875
:1005F800583D8700590884008501403F803F413FAE
:10060800813F5908033E860087010030C03FFF3014
:10061800C13F08002000D500550886008701520810
:10062800C03F5308C13F5508023E86008701520863
:10063800C03F5308C13F2030D4005508043E86000F
:100648008701540881005508053E8600870181010D
:10065800810A08002000D300530886008701003073
:10066800C03FC13F6A30D2005308023E860087016E
:10067800520881005308033E860087010030C03FBE
:10068800C13F5308053E860087010030C03FC13F87
:10069800080021302000A0070030A13D2108DD001E
:1006A8002008DC000A30DD36DC0C890B572B5C088F
:1006B80022008C00F421080020302000D2000130F4
:1006C800D3003A300E23A0302000D2000030D300EF
:1006D80034300E232D302E2326302E2308000134EB
:1006E800013401340134033406340C341834013431
:1006F80000340034003401348034FE0012001E003F
:10070800FE0B822B0034640080010131890B882B99
:020718000034AB
:020000040001F9
:08000E008CDFF0F7FFDFFFFFBC
:00000001FF
