:020000003428A2
:100008007E14803120007F08FA00911C2F2891105F
:100018000130FD02031D18284030F8007808FD0063
:100028000130F8007808A407FB01FC012C30AA2154
:10003800F800F9017808FB077908FC3D2530AA216A
:10004800F800F9017808FB077908FC3D7C082500D1
:1000580092007B0891007A082000FF007E100900BA
:1000680035284923FD0034308400833085004D3025
:1000780086000030870009303D23553084008230E7
:100088008500A0308600003087002A303D236A3082
:1000980084008130850020308600013087004030A0
:1000A8003D232030840000308500213043237E101A
:1000B80020007F2A863400348E340034963400348D
:1000C8009F340034A9340034B3340034BD340034D0
:1000D800C9340034D5340034E1340034EF3400340A
:1000E800FD3400340C3401341C3401342D34013413
:1000F8003F34013452340134663401347B340134E2
:1001080091340134A9340134C3340134DD34013469
:10011800FA3401341834023438340234593402348D
:100128007D340234A3340234CB340234F63402343E
:10013800233403345334033485340334BB34033455
:10014800F3340334303404346F340434B3340434B3
:10015800FA3404344634053496340534EB34053423
:1001680046340634A53406340A3407347534073463
:10017800E73407345F340834DF340834663409342C
:10018800F53409348C340A342D340B34D7340B3419
:100198008B340C344A340D3414340E34EB340E34AE
:1001A800CE340F34BE341034BD341134CB34123451
:1001B800EA341334193415345A341634AE34173437
:1001C8001634193494341A3429341C34D6341D3472
:1001D8009C341F34803400342000C6004608053E95
:1001E80086008701013081020319FC2800300800CD
:1001F8004608023E86008701403FC200413FC300D7
:1002080042088600430887000108C4004408C50066
:100218004608023E860087010130810741310318F4
:10022800810A21304502031C3A294508C2000530DD
:10023800C236890B1C2942084D3E860087010108F9
:10024800C3004608053E860087014308810046082A
:10025800043E8600870145081F390107C20041088E
:100268008600870142088100013008004508031D07
:1002780049294608860087014608023E8400850110
:10028800403F803F413F813FFC284503031DFC2838
:100298004608023E86008701403FC200413FC30036
:1002A80042088600430887000108C4004608043E47
:1002B80086008701440881004608023E86008701BF
:1002C8000130810741310318810AFC2801342034A8
:1002D800C934D034D034CE34CE34D034CC34CB340A
:1002E800AB34AC34CE34CC34CB34E934E934C9340F
:1002F800D034D034CE34CE34D034CC34CB34AB3408
:10030800AC34CE34CC34CB34E934E934C934D534C4
:10031800D534D334D334D534D134D034B034B134E3
:10032800D334D034CE34EE34ED34CE34D134B13489
:10033800B034CE34CC34D034D034CC34AB34AC3408
:10034800CE34CC34CB34E934E9340034F7007708C0
:10035800043E860087010108F000F1017708053E98
:1003680086008701403FF200413FF3007308F20026
:10037800F30171087302031DC32970087202031C7C
:10038800D429770886008701403FF000413FF100FB
:100398007108F000F1017008F4007108F500D62921
:1003A800F401F5017408F0007008F6007708023EC1
:1003B800860087017708053E84008501403F800755
:1003C8000131413F803D3F31760808002000550843
:1003D800C900CA014908A2074A08A33D09302302F7
:1003E800C43003192202031C1E2AC430A202093099
:1003F800A33B3F30C9004908C1003930F020003A1A
:1004080003190D2A20003F08C9004908C1002C30F3
:10041800A82240302000C9004908C1003330F0202C
:10042800003A03191E2A20004008C9004908C100E3
:100438002530A8222C302322253023220800200032
:10044800C500450886008701403FC100413FC20002
:10045800EE30840080308500003FC300013FC400B7
:1004680042084402031D3A2A4108430203184E2A4F
:10047800EE30840080308500003FC100013FC2009B
:100488004508860087014108810241314208813BC5
:100498007F3108004508860087010030C03FC13F12
:1004A800080001340834F534F134F334F034F1340D
:1004B800EE34CC34CB34C934D034F534F134F3349D
:1004C800F034F134EE34CC34CB34C934D034FA348B
:1004D800F734F834F534F634F334D534CD34D53430
:1004E800D934FA34F434F534F134F234F434F134E0
:1004F800CE34D134003432001F08F03907389F0059
:10050800212323008C01033021008C00203022009D
:100518008C000C303D009200F93020009E009D01B7
:100528000C309F002500910192018F30930002301A
:1005380021009100C0308B00200024080319A02A54
:100548000130A4020E23A02A2000C8004108C200DE
:10055800C301C235C30D4208E83EC400FF30433D25
:10056800C5005E30C6008030C700440846078600D4
:100578004508473D87004808023E84008501403F02
:10058800803F413F813F4808860087010030C03FD7
:10059800FF30C13F08002000C400440886008701DE
:1005A8004108C03F4208C13F4408023E8600870117
:1005B8004108C03F4208C13F2030C3004408043E00
:1005C80086008701430881004408053E86008701AC
:1005D8008101810A08002000C2004208023E86000C
:1005E80087010030C03FC13F6430C1004208043E6B
:1005F8008600870141088100420886008701003093
:10060800C03FC13F4208053E860087010030C03F19
:10061800C13F080083302000A0070030A13D210819
:10062800CC002008CB000A30CC36CB0C890B182B19
:100638004B0822008C00EA21080020302000C1006D
:100648000130C2003930CF22A0302000C100003074
:10065800C2003330CF222C30EF222530EF220800A1
:100668000134013401340134033406340C341834B1
:100678006934FE0012001E00FE0B3E2B003464009D
:0C06880080010131890B442B0034013447
:020000040001F9
:08000E008CDFF0F7FFDFFFFFBC
:00000001FF
