:020000001C28BA
:100008007E14803120007F08F100911C182891107F
:100018000130F302031D18284030F0007008F30087
:100028000130F0007008F2077108FF007E10090027
:100038001D284C20F300F2017E10200044283200D5
:100048001F08F03906389F0023008C010330210077
:100058008C00203022008C000C303D009200F930DA
:1000680020009E009D0104309F002500910192010F
:100078008F309300023021009100C0308B000800BF
:1000880023207208031945280130F2024D20452823
:040098000134080027
:020000040001F9
:08000E008CDFF0F7FFDFFFFFBC
:00000001FF
